{
  "contractName": "Voter",
  "abi": [
    {
      "constant": true,
      "inputs": [
        {
          "name": "",
          "type": "uint256"
        }
      ],
      "name": "options",
      "outputs": [
        {
          "name": "",
          "type": "string"
        }
      ],
      "payable": false,
      "stateMutability": "view",
      "type": "function"
    },
    {
      "constant": true,
      "inputs": [
        {
          "name": "",
          "type": "uint256"
        }
      ],
      "name": "votes",
      "outputs": [
        {
          "name": "",
          "type": "uint256"
        }
      ],
      "payable": false,
      "stateMutability": "view",
      "type": "function"
    },
    {
      "constant": false,
      "inputs": [
        {
          "name": "option",
          "type": "string"
        }
      ],
      "name": "addOption",
      "outputs": [],
      "payable": false,
      "stateMutability": "nonpayable",
      "type": "function"
    },
    {
      "constant": false,
      "inputs": [],
      "name": "startVoting",
      "outputs": [],
      "payable": false,
      "stateMutability": "nonpayable",
      "type": "function"
    },
    {
      "constant": false,
      "inputs": [
        {
          "name": "option",
          "type": "uint256"
        }
      ],
      "name": "vote",
      "outputs": [],
      "payable": false,
      "stateMutability": "nonpayable",
      "type": "function"
    },
    {
      "constant": false,
      "inputs": [
        {
          "name": "optionName",
          "type": "string"
        }
      ],
      "name": "vote",
      "outputs": [],
      "payable": false,
      "stateMutability": "nonpayable",
      "type": "function"
    },
    {
      "constant": true,
      "inputs": [],
      "name": "getVotes",
      "outputs": [
        {
          "name": "",
          "type": "uint256[]"
        }
      ],
      "payable": false,
      "stateMutability": "view",
      "type": "function"
    }
  ],
  "bytecode": "0x608060405234801561001057600080fd5b50610c2c806100206000396000f3fe608060405260043610610083576000357c0100000000000000000000000000000000000000000000000000000000900463ffffffff1680630121b93f146100885780630dc96015146100c35780631ec6b60a1461012f578063409e2205146101465780635df81330146101fa578063edc550dc14610249578063fc36e15b14610311575b600080fd5b34801561009457600080fd5b506100c1600480360360208110156100ab57600080fd5b81019080803590602001909291905050506103d9565b005b3480156100cf57600080fd5b506100d86105b9565b6040518080602001828103825283818151815260200191508051906020019060200280838360005b8381101561011b578082015181840152602081019050610100565b505050509050019250505060405180910390f35b34801561013b57600080fd5b50610144610611565b005b34801561015257600080fd5b5061017f6004803603602081101561016957600080fd5b8101908080359060200190929190505050610759565b6040518080602001828103825283818151815260200191508051906020019080838360005b838110156101bf5780820151818401526020810190506101a4565b50505050905090810190601f1680156101ec5780820380516001836020036101000a031916815260200191505b509250505060405180910390f35b34801561020657600080fd5b506102336004803603602081101561021d57600080fd5b8101908080359060200190929190505050610814565b6040518082815260200191505060405180910390f35b34801561025557600080fd5b5061030f6004803603602081101561026c57600080fd5b810190808035906020019064010000000081111561028957600080fd5b82018360208201111561029b57600080fd5b803590602001918460018302840111640100000000831117156102bd57600080fd5b91908080601f016020809104026020016040519081016040528093929190818152602001838380828437600081840152601f19601f820116905080830192505050505050509192919290505050610837565b005b34801561031d57600080fd5b506103d76004803603602081101561033457600080fd5b810190808035906020019064010000000081111561035157600080fd5b82018360208201111561036357600080fd5b8035906020019184600183028401116401000000008311171561038557600080fd5b91908080601f016020809104026020016040519081016040528093929190818152602001838380828437600081840152601f19601f820116905080830192505050505050509192919290505050610895565b005b806000111580156103ee575060018054905081105b1515610462576040517f08c379a000000000000000000000000000000000000000000000000000000000815260040180806020018281038252600e8152602001807f496e76616c6964206f7074696f6e00000000000000000000000000000000000081525060200191505060405180910390fd5b600260003373ffffffffffffffffffffffffffffffffffffffff1673ffffffffffffffffffffffffffffffffffffffff16815260200190815260200160002060009054906101000a900460ff16151515610524576040517f08c379a00000000000000000000000000000000000000000000000000000000081526004018080602001828103825260198152602001807f4163636f756e742068617320616c726561647920766f7465640000000000000081525060200191505060405180910390fd5b600160008281548110151561053557fe5b90600052602060002001540160008281548110151561055057fe5b90600052602060002001819055506001600260003373ffffffffffffffffffffffffffffffffffffffff1673ffffffffffffffffffffffffffffffffffffffff16815260200190815260200160002060006101000a81548160ff02191690831515021790555050565b6060600080548060200260200160405190810160405280929190818152602001828054801561060757602002820191906000526020600020905b8154815260200190600101908083116105f3575b5050505050905090565b600460009054906101000a900460ff1615151561062d57600080fd5b6001805490506000816106409190610b13565b5060008090505b60018054905081101561073b5761065c610b3f565b604080519081016040528083815260200160011515815250905080600360018481548110151561068857fe5b9060005260206000200160405180828054600181600116156101000203166002900480156106ed5780601f106106cb5761010080835404028352918201916106ed565b820191906000526020600020905b8154815290600101906020018083116106d9575b505091505090815260200160405180910390206000820151816000015560208201518160010160006101000a81548160ff021916908315150217905550905050508080600101915050610647565b506001600460006101000a81548160ff021916908315150217905550565b60018181548110151561076857fe5b906000526020600020016000915090508054600181600116156101000203166002900480601f01602080910402602001604051908101604052809291908181526020018280546001816001161561010002031660029004801561080c5780601f106107e15761010080835404028352916020019161080c565b820191906000526020600020905b8154815290600101906020018083116107ef57829003601f168201915b505050505081565b60008181548110151561082357fe5b906000526020600020016000915090505481565b600460009054906101000a900460ff1615151561085357600080fd5b6001819080600181540180825580915050906001820390600052602060002001600090919290919091509080519060200190610890929190610b5b565b505050565b600260003373ffffffffffffffffffffffffffffffffffffffff1673ffffffffffffffffffffffffffffffffffffffff16815260200190815260200160002060009054906101000a900460ff16151515610957576040517f08c379a00000000000000000000000000000000000000000000000000000000081526004018080602001828103825260198152602001807f4163636f756e742068617320616c726561647920766f7465640000000000000081525060200191505060405180910390fd5b61095f610b3f565b6003826040518082805190602001908083835b6020831015156109975780518252602082019150602081019050602083039250610972565b6001836020036101000a0380198251168184511680821785525050505050509050019150509081526020016040518091039020604080519081016040529081600082015481526020016001820160009054906101000a900460ff161515151581525050905080602001511515610a75576040517f08c379a00000000000000000000000000000000000000000000000000000000081526004018080602001828103825260158152602001807f4f7074696f6e20646f6573206e6f74206578697374000000000000000000000081525060200191505060405180910390fd5b600160008260000151815481101515610a8a57fe5b90600052602060002001540160008260000151815481101515610aa957fe5b90600052602060002001819055506001600260003373ffffffffffffffffffffffffffffffffffffffff1673ffffffffffffffffffffffffffffffffffffffff16815260200190815260200160002060006101000a81548160ff0219169083151502179055505050565b815481835581811115610b3a57818360005260206000209182019101610b399190610bdb565b5b505050565b6040805190810160405280600081526020016000151581525090565b828054600181600116156101000203166002900490600052602060002090601f016020900481019282601f10610b9c57805160ff1916838001178555610bca565b82800160010185558215610bca579182015b82811115610bc9578251825591602001919060010190610bae565b5b509050610bd79190610bdb565b5090565b610bfd91905b80821115610bf9576000816000905550600101610be1565b5090565b9056fea165627a7a72305820fc764cb9bf0d1400d9346b93fc3d576828365d7e4a3cf9b1b2a1bc208e221fb30029",
  "source": "pragma solidity >0.4.0;\r\n\r\ncontract Voter {\r\n    \r\n    struct OptionPos {\r\n        uint pos;\r\n        bool exists;\r\n    }\r\n    \r\n    uint[] public votes;\r\n    string[] public options;\r\n    mapping(address => bool) hasVoted;\r\n    mapping(string => OptionPos) posOfOption;\r\n    bool votingStarted;\r\n    \r\n    // constructor(string[] _options) public {\r\n    //     options = _options;\r\n    //     votes.length = options.length;\r\n        \r\n    //     for(uint i = 0; i  options.length; i++) {\r\n    //         OptionPos memory optionPos = OptionPos(i, true);\r\n    //         string optionName = options[i];\r\n    //         posOfOption[optionName] = optionPos;\r\n    //     }\r\n    // }\r\n\r\n    function addOption(string memory option) public {\r\n        require(!votingStarted);\r\n        options.push(option);\r\n    }\r\n\r\n    function startVoting() public {\r\n        require(!votingStarted);\r\n        votes.length = options.length;\r\n\r\n        for(uint i = 0; i < options.length; i++) {\r\n            OptionPos memory option = OptionPos(i, true);\r\n            posOfOption[options[i]] = option;\r\n        }\r\n        votingStarted = true;\r\n    }\r\n    \r\n    function vote(uint option) public {\r\n        require(0 <= option && option < options.length, 'Invalid option');\r\n        require(!hasVoted[msg.sender], 'Account has already voted');\r\n\r\n        votes[option] = votes[option] + 1;\r\n        hasVoted[msg.sender] = true;\r\n    }\r\n    \r\n    function vote(string memory optionName) public {\r\n        require(!hasVoted[msg.sender], 'Account has already voted');\r\n        OptionPos memory optionPos = posOfOption[optionName];\r\n        require(optionPos.exists, \"Option does not exist\");\r\n        votes[optionPos.pos] = votes[optionPos.pos] + 1;\r\n        hasVoted[msg.sender] = true;\r\n    }\r\n    \r\n    // function getOptions() public view returns (string[]) {\r\n    //     return options;\r\n    // }\r\n    \r\n    function getVotes() public view returns (uint[] memory) {\r\n        return votes;\r\n    }\r\n}",
  "sourcePath": "C:/dev/truffle-demo/contracts/Voter.sol",
  "compiler": {
    "name": "solc",
    "version": "0.5.0+commit.1d4f565a.Emscripten.clang"
  },
  "schemaVersion": "3.0.9",
  "updatedAt": "2019-06-13T13:50:02.815Z",
  "devdoc": {
    "methods": {}
  },
  "userdoc": {
    "methods": {}
  }
}